{
  "contractName": "Multicall2",
  "abi": [
    {
      "constant": false,
      "inputs": [
        {
          "components": [
            {
              "internalType": "address",
              "name": "target",
              "type": "address"
            },
            {
              "internalType": "bytes",
              "name": "callData",
              "type": "bytes"
            }
          ],
          "internalType": "struct Multicall2.Call[]",
          "name": "calls",
          "type": "tuple[]"
        }
      ],
      "name": "aggregate",
      "outputs": [
        {
          "internalType": "uint256",
          "name": "blockNumber",
          "type": "uint256"
        },
        {
          "internalType": "bytes[]",
          "name": "returnData",
          "type": "bytes[]"
        }
      ],
      "payable": false,
      "stateMutability": "nonpayable",
      "type": "function"
    },
    {
      "constant": false,
      "inputs": [
        {
          "components": [
            {
              "internalType": "address",
              "name": "target",
              "type": "address"
            },
            {
              "internalType": "bytes",
              "name": "callData",
              "type": "bytes"
            }
          ],
          "internalType": "struct Multicall2.Call[]",
          "name": "calls",
          "type": "tuple[]"
        }
      ],
      "name": "blockAndAggregate",
      "outputs": [
        {
          "internalType": "uint256",
          "name": "blockNumber",
          "type": "uint256"
        },
        {
          "internalType": "bytes32",
          "name": "blockHash",
          "type": "bytes32"
        },
        {
          "components": [
            {
              "internalType": "bool",
              "name": "success",
              "type": "bool"
            },
            {
              "internalType": "bytes",
              "name": "returnData",
              "type": "bytes"
            }
          ],
          "internalType": "struct Multicall2.Result[]",
          "name": "returnData",
          "type": "tuple[]"
        }
      ],
      "payable": false,
      "stateMutability": "nonpayable",
      "type": "function"
    },
    {
      "constant": true,
      "inputs": [
        {
          "internalType": "uint256",
          "name": "blockNumber",
          "type": "uint256"
        }
      ],
      "name": "getBlockHash",
      "outputs": [
        {
          "internalType": "bytes32",
          "name": "blockHash",
          "type": "bytes32"
        }
      ],
      "payable": false,
      "stateMutability": "view",
      "type": "function"
    },
    {
      "constant": true,
      "inputs": [],
      "name": "getBlockNumber",
      "outputs": [
        {
          "internalType": "uint256",
          "name": "blockNumber",
          "type": "uint256"
        }
      ],
      "payable": false,
      "stateMutability": "view",
      "type": "function"
    },
    {
      "constant": true,
      "inputs": [],
      "name": "getCurrentBlockCoinbase",
      "outputs": [
        {
          "internalType": "address",
          "name": "coinbase",
          "type": "address"
        }
      ],
      "payable": false,
      "stateMutability": "view",
      "type": "function"
    },
    {
      "constant": true,
      "inputs": [],
      "name": "getCurrentBlockDifficulty",
      "outputs": [
        {
          "internalType": "uint256",
          "name": "difficulty",
          "type": "uint256"
        }
      ],
      "payable": false,
      "stateMutability": "view",
      "type": "function"
    },
    {
      "constant": true,
      "inputs": [],
      "name": "getCurrentBlockGasLimit",
      "outputs": [
        {
          "internalType": "uint256",
          "name": "gaslimit",
          "type": "uint256"
        }
      ],
      "payable": false,
      "stateMutability": "view",
      "type": "function"
    },
    {
      "constant": true,
      "inputs": [],
      "name": "getCurrentBlockTimestamp",
      "outputs": [
        {
          "internalType": "uint256",
          "name": "timestamp",
          "type": "uint256"
        }
      ],
      "payable": false,
      "stateMutability": "view",
      "type": "function"
    },
    {
      "constant": true,
      "inputs": [
        {
          "internalType": "address",
          "name": "addr",
          "type": "address"
        }
      ],
      "name": "getEthBalance",
      "outputs": [
        {
          "internalType": "uint256",
          "name": "balance",
          "type": "uint256"
        }
      ],
      "payable": false,
      "stateMutability": "view",
      "type": "function"
    },
    {
      "constant": true,
      "inputs": [],
      "name": "getLastBlockHash",
      "outputs": [
        {
          "internalType": "bytes32",
          "name": "blockHash",
          "type": "bytes32"
        }
      ],
      "payable": false,
      "stateMutability": "view",
      "type": "function"
    },
    {
      "constant": false,
      "inputs": [
        {
          "internalType": "bool",
          "name": "requireSuccess",
          "type": "bool"
        },
        {
          "components": [
            {
              "internalType": "address",
              "name": "target",
              "type": "address"
            },
            {
              "internalType": "bytes",
              "name": "callData",
              "type": "bytes"
            }
          ],
          "internalType": "struct Multicall2.Call[]",
          "name": "calls",
          "type": "tuple[]"
        }
      ],
      "name": "tryAggregate",
      "outputs": [
        {
          "components": [
            {
              "internalType": "bool",
              "name": "success",
              "type": "bool"
            },
            {
              "internalType": "bytes",
              "name": "returnData",
              "type": "bytes"
            }
          ],
          "internalType": "struct Multicall2.Result[]",
          "name": "returnData",
          "type": "tuple[]"
        }
      ],
      "payable": false,
      "stateMutability": "nonpayable",
      "type": "function"
    },
    {
      "constant": false,
      "inputs": [
        {
          "internalType": "bool",
          "name": "requireSuccess",
          "type": "bool"
        },
        {
          "components": [
            {
              "internalType": "address",
              "name": "target",
              "type": "address"
            },
            {
              "internalType": "bytes",
              "name": "callData",
              "type": "bytes"
            }
          ],
          "internalType": "struct Multicall2.Call[]",
          "name": "calls",
          "type": "tuple[]"
        }
      ],
      "name": "tryBlockAndAggregate",
      "outputs": [
        {
          "internalType": "uint256",
          "name": "blockNumber",
          "type": "uint256"
        },
        {
          "internalType": "bytes32",
          "name": "blockHash",
          "type": "bytes32"
        },
        {
          "components": [
            {
              "internalType": "bool",
              "name": "success",
              "type": "bool"
            },
            {
              "internalType": "bytes",
              "name": "returnData",
              "type": "bytes"
            }
          ],
          "internalType": "struct Multicall2.Result[]",
          "name": "returnData",
          "type": "tuple[]"
        }
      ],
      "payable": false,
      "stateMutability": "nonpayable",
      "type": "function"
    }
  ],
  "bytecode": "0x608060405234801561001057600080fd5b50610e9e806100206000396000f3fe608060405234801561001057600080fd5b50600436106100b45760003560e01c806372425d9d1161007157806372425d9d146101a657806386d516e8146101c4578063a8b0574e146101e2578063bce38bd714610200578063c3077fa914610230578063ee82ac5e14610262576100b4565b80630f28c97d146100b9578063252dba42146100d757806327e86d6e14610108578063399542e91461012657806342cbb15c146101585780634d2301cc14610176575b600080fd5b6100c1610292565b6040516100ce9190610bbd565b60405180910390f35b6100f160048036036100ec91908101906107b5565b61029a565b6040516100ff929190610bd8565b60405180910390f35b6101106103f3565b60405161011d9190610b62565b60405180910390f35b610140600480360361013b91908101906107f6565b6103ff565b60405161014f93929190610c08565b60405180910390f35b61016061041e565b60405161016d9190610bbd565b60405180910390f35b610190600480360361018b919081019061078c565b610426565b60405161019d9190610bbd565b60405180910390f35b6101ae610447565b6040516101bb9190610bbd565b60405180910390f35b6101cc61044f565b6040516101d99190610bbd565b60405180910390f35b6101ea610457565b6040516101f79190610b25565b60405180910390f35b61021a600480360361021591908101906107f6565b61045f565b6040516102279190610b40565b60405180910390f35b61024a600480360361024591908101906107b5565b6105d7565b60405161025993929190610c08565b60405180910390f35b61027c6004803603610277919081019061084a565b6105fa565b6040516102899190610b62565b60405180910390f35b600042905090565b6000606043915082516040519080825280602002602001820160405280156102d657816020015b60608152602001906001900390816102c15790505b50905060008090505b83518110156103ed57600060608583815181106102f857fe5b60200260200101516000015173ffffffffffffffffffffffffffffffffffffffff1686848151811061032657fe5b60200260200101516020015160405161033f9190610b0e565b6000604051808303816000865af19150503d806000811461037c576040519150601f19603f3d011682016040523d82523d6000602084013e610381565b606091505b5091509150816103c6576040517f08c379a00000000000000000000000000000000000000000000000000000000081526004016103bd90610b9d565b60405180910390fd5b808484815181106103d357fe5b6020026020010181905250505080806001019150506102df565b50915091565b60006001430340905090565b600080606043925043409150610415858561045f565b90509250925092565b600043905090565b60008173ffffffffffffffffffffffffffffffffffffffff16319050919050565b600044905090565b600045905090565b600041905090565b6060815160405190808252806020026020018201604052801561049c57816020015b610489610605565b8152602001906001900390816104815790505b50905060008090505b82518110156105d057600060608483815181106104be57fe5b60200260200101516000015173ffffffffffffffffffffffffffffffffffffffff168584815181106104ec57fe5b6020026020010151602001516040516105059190610b0e565b6000604051808303816000865af19150503d8060008114610542576040519150601f19603f3d011682016040523d82523d6000602084013e610547565b606091505b509150915085156105935781610592576040517f08c379a000000000000000000000000000000000000000000000000000000000815260040161058990610b7d565b60405180910390fd5b5b60405180604001604052808315158152602001828152508484815181106105b657fe5b6020026020010181905250505080806001019150506104a5565b5092915050565b60008060606105e76001856103ff565b8093508194508295505050509193909250565b600081409050919050565b6040518060400160405280600015158152602001606081525090565b60008135905061063081610e16565b92915050565b600082601f83011261064757600080fd5b813561065a61065582610c73565b610c46565b9150818183526020840193506020810190508360005b838110156106a057813586016106868882610713565b845260208401935060208301925050600181019050610670565b5050505092915050565b6000813590506106b981610e2d565b92915050565b600082601f8301126106d057600080fd5b81356106e36106de82610c9b565b610c46565b915080825260208301602083018583830111156106ff57600080fd5b61070a838284610dc3565b50505092915050565b60006040828403121561072557600080fd5b61072f6040610c46565b9050600061073f84828501610621565b600083015250602082013567ffffffffffffffff81111561075f57600080fd5b61076b848285016106bf565b60208301525092915050565b60008135905061078681610e44565b92915050565b60006020828403121561079e57600080fd5b60006107ac84828501610621565b91505092915050565b6000602082840312156107c757600080fd5b600082013567ffffffffffffffff8111156107e157600080fd5b6107ed84828501610636565b91505092915050565b6000806040838503121561080957600080fd5b6000610817858286016106aa565b925050602083013567ffffffffffffffff81111561083457600080fd5b61084085828601610636565b9150509250929050565b60006020828403121561085c57600080fd5b600061086a84828501610777565b91505092915050565b600061087f83836109b2565b905092915050565b60006108938383610ac2565b905092915050565b6108a481610d71565b82525050565b60006108b582610ce7565b6108bf8185610d22565b9350836020820285016108d185610cc7565b8060005b8581101561090d57848403895281516108ee8582610873565b94506108f983610d08565b925060208a019950506001810190506108d5565b50829750879550505050505092915050565b600061092a82610cf2565b6109348185610d33565b93508360208202850161094685610cd7565b8060005b8581101561098257848403895281516109638582610887565b945061096e83610d15565b925060208a0199505060018101905061094a565b50829750879550505050505092915050565b61099d81610d83565b82525050565b6109ac81610d8f565b82525050565b60006109bd82610cfd565b6109c78185610d44565b93506109d7818560208601610dd2565b6109e081610e05565b840191505092915050565b60006109f682610cfd565b610a008185610d55565b9350610a10818560208601610dd2565b80840191505092915050565b6000610a29602183610d60565b91507f4d756c746963616c6c32206167677265676174653a2063616c6c206661696c6560008301527f64000000000000000000000000000000000000000000000000000000000000006020830152604082019050919050565b6000610a8f602083610d60565b91507f4d756c746963616c6c206167677265676174653a2063616c6c206661696c65646000830152602082019050919050565b6000604083016000830151610ada6000860182610994565b5060208301518482036020860152610af282826109b2565b9150508091505092915050565b610b0881610db9565b82525050565b6000610b1a82846109eb565b915081905092915050565b6000602082019050610b3a600083018461089b565b92915050565b60006020820190508181036000830152610b5a818461091f565b905092915050565b6000602082019050610b7760008301846109a3565b92915050565b60006020820190508181036000830152610b9681610a1c565b9050919050565b60006020820190508181036000830152610bb681610a82565b9050919050565b6000602082019050610bd26000830184610aff565b92915050565b6000604082019050610bed6000830185610aff565b8181036020830152610bff81846108aa565b90509392505050565b6000606082019050610c1d6000830186610aff565b610c2a60208301856109a3565b8181036040830152610c3c818461091f565b9050949350505050565b6000604051905081810181811067ffffffffffffffff82111715610c6957600080fd5b8060405250919050565b600067ffffffffffffffff821115610c8a57600080fd5b602082029050602081019050919050565b600067ffffffffffffffff821115610cb257600080fd5b601f19601f8301169050602081019050919050565b6000819050602082019050919050565b6000819050602082019050919050565b600081519050919050565b600081519050919050565b600081519050919050565b6000602082019050919050565b6000602082019050919050565b600082825260208201905092915050565b600082825260208201905092915050565b600082825260208201905092915050565b600081905092915050565b600082825260208201905092915050565b6000610d7c82610d99565b9050919050565b60008115159050919050565b6000819050919050565b600073ffffffffffffffffffffffffffffffffffffffff82169050919050565b6000819050919050565b82818337600083830152505050565b60005b83811015610df0578082015181840152602081019050610dd5565b83811115610dff576000848401525b50505050565b6000601f19601f8301169050919050565b610e1f81610d71565b8114610e2a57600080fd5b50565b610e3681610d83565b8114610e4157600080fd5b50565b610e4d81610db9565b8114610e5857600080fd5b5056fea365627a7a7231582059afe0aa6771fc58612e8add0b093d4916a635e3008fdee833e6fc9d400abfb16c6578706572696d656e74616cf564736f6c63430005100040",
  "source": "pragma solidity >=0.5.0;\npragma experimental ABIEncoderV2;\n\n/// @title Multicall2 - Aggregate results from multiple read-only function calls\n/// @author Michael Elliot <mike@makerdao.com>\n/// @author Joshua Levine <joshua@makerdao.com>\n/// @author Nick Johnson <arachnid@notdot.net>\n\ncontract Multicall2 {\n    struct Call {\n        address target;\n        bytes callData;\n    }\n    struct Result {\n        bool success;\n        bytes returnData;\n    }\n\n    function aggregate(Call[] memory calls) public returns (uint256 blockNumber, bytes[] memory returnData) {\n        blockNumber = block.number;\n        returnData = new bytes[](calls.length);\n        for(uint256 i = 0; i < calls.length; i++) {\n            (bool success, bytes memory ret) = calls[i].target.call(calls[i].callData);\n            require(success, \"Multicall aggregate: call failed\");\n            returnData[i] = ret;\n        }\n    }\n    function blockAndAggregate(Call[] memory calls) public returns (uint256 blockNumber, bytes32 blockHash, Result[] memory returnData) {\n        (blockNumber, blockHash, returnData) = tryBlockAndAggregate(true, calls);\n    }\n    function getBlockHash(uint256 blockNumber) public view returns (bytes32 blockHash) {\n        blockHash = blockhash(blockNumber);\n    }\n    function getBlockNumber() public view returns (uint256 blockNumber) {\n        blockNumber = block.number;\n    }\n    function getCurrentBlockCoinbase() public view returns (address coinbase) {\n        coinbase = block.coinbase;\n    }\n    function getCurrentBlockDifficulty() public view returns (uint256 difficulty) {\n        difficulty = block.difficulty;\n    }\n    function getCurrentBlockGasLimit() public view returns (uint256 gaslimit) {\n        gaslimit = block.gaslimit;\n    }\n    function getCurrentBlockTimestamp() public view returns (uint256 timestamp) {\n        timestamp = block.timestamp;\n    }\n    function getEthBalance(address addr) public view returns (uint256 balance) {\n        balance = addr.balance;\n    }\n    function getLastBlockHash() public view returns (bytes32 blockHash) {\n        blockHash = blockhash(block.number - 1);\n    }\n    function tryAggregate(bool requireSuccess, Call[] memory calls) public returns (Result[] memory returnData) {\n        returnData = new Result[](calls.length);\n        for(uint256 i = 0; i < calls.length; i++) {\n            (bool success, bytes memory ret) = calls[i].target.call(calls[i].callData);\n\n            if (requireSuccess) {\n                require(success, \"Multicall2 aggregate: call failed\");\n            }\n\n            returnData[i] = Result(success, ret);\n        }\n    }\n    function tryBlockAndAggregate(bool requireSuccess, Call[] memory calls) public returns (uint256 blockNumber, bytes32 blockHash, Result[] memory returnData) {\n        blockNumber = block.number;\n        blockHash = blockhash(block.number);\n        returnData = tryAggregate(requireSuccess, calls);\n    }\n}\n",
  "sourcePath": "/data/code/BSC/multicall/contracts/Multicall2.sol",
  "compiler": {
    "name": "solc",
    "version": "0.5.16+commit.9c3226ce.Emscripten.clang"
  },
  "schemaVersion": "3.4.1",
  "updatedAt": "2021-07-19T16:21:51.576Z",
  "networkType": "ethereum",
  "devdoc": {
    "author": "Michael Elliot <mike@makerdao.com>Joshua Levine <joshua@makerdao.com>Nick Johnson <arachnid@notdot.net>",
    "methods": {},
    "title": "Multicall2 - Aggregate results from multiple read-only function calls"
  },
  "userdoc": {
    "methods": {}
  }
}